{
  "contractName": "OaxMembership",
  "abi": [
    {
      "constant": true,
      "inputs": [],
      "name": "MembershipStake",
      "outputs": [
        {
          "name": "",
          "type": "uint256"
        }
      ],
      "payable": false,
      "stateMutability": "view",
      "type": "function"
    },
    {
      "constant": true,
      "inputs": [
        {
          "name": "_guy",
          "type": "address"
        }
      ],
      "name": "isMember",
      "outputs": [
        {
          "name": "",
          "type": "bool"
        }
      ],
      "payable": false,
      "stateMutability": "view",
      "type": "function"
    },
    {
      "constant": true,
      "inputs": [
        {
          "name": "_guy",
          "type": "address"
        }
      ],
      "name": "isGatewayMember",
      "outputs": [
        {
          "name": "",
          "type": "bool"
        }
      ],
      "payable": false,
      "stateMutability": "view",
      "type": "function"
    },
    {
      "constant": true,
      "inputs": [
        {
          "name": "_guy",
          "type": "address"
        }
      ],
      "name": "isVotingMember",
      "outputs": [
        {
          "name": "",
          "type": "bool"
        }
      ],
      "payable": false,
      "stateMutability": "view",
      "type": "function"
    }
  ],
  "bytecode": "0x608060405234801561001057600080fd5b506101fc806100206000396000f300608060405260043610610062576000357c0100000000000000000000000000000000000000000000000000000000900463ffffffff16806322a4477b1461006757806375a8c272146100c25780639b2b622d146100ed578063a230c52414610148575b600080fd5b34801561007357600080fd5b506100a8600480360381019080803573ffffffffffffffffffffffffffffffffffffffff1690602001909291905050506101a3565b604051808215151515815260200191505060405180910390f35b3480156100ce57600080fd5b506100d76101ae565b6040518082815260200191505060405180910390f35b3480156100f957600080fd5b5061012e600480360381019080803573ffffffffffffffffffffffffffffffffffffffff1690602001909291905050506101ba565b604051808215151515815260200191505060405180910390f35b34801561015457600080fd5b50610189600480360381019080803573ffffffffffffffffffffffffffffffffffffffff1690602001909291905050506101c5565b604051808215151515815260200191505060405180910390f35b600060019050919050565b670de0b6b3a764000081565b600060019050919050565b6000600190509190505600a165627a7a72305820595cdbe25f5fb50ecaaa11967a0986a03effdffdc3e06ca117d6c8a3c43b24040029",
  "source": "pragma solidity ^0.4.24;\n\ncontract voting{\n    \n    /*misc variables*/\n    OaxMembership membershipLocation;\n    uint proposalIdCount = 0;\n    \n    \n    /*variables regarding the vote status of an individual voter*/\n    //1. status of 'voted?' given voter address and given proposalId\n    mapping (address => mapping (uint => bool)) Voted;\n    //2. allow membership contract to check this attribute\n    //as member that has a voted proposal in progress cannot transfer membership\n    mapping (address => uint) CannotTransferUntil;\n    \n    /*variables regarding the proposal*/\n    //1. status of the proposal\n    enum status {open, denied, accepted}    \n    //2. link an id to a unique proposal\n    mapping (uint => Proposal) ProposalById;\n    //3. things that each proposal contains\n    struct Proposal {\n        //this id duplicates the mapping\n        uint proposalId;\n        address proposer;\n        bytes proposalContent;\n        status proposalStatus;\n        uint timeEnd;\n        uint voteCount;\n    }\n    \n    /*events*/\n    event Propose (\n        uint _id, address _proposer, bytes _content, uint _timeEnd\n        );\n    event Vote(\n        uint _id, address _voter\n        );\n    event CloseProposal(\n        uint _id, address _closer, status _status\n        );\n    \n    /*function run at first setup*/\n    //setup membership address for checking \n    constructor (address _membershipLocation) public {\n\t    membershipLocation = OaxMembership(_membershipLocation);\n    }\n\n    /*checkers for functions*/\n    //check if is voting member\n    modifier isVotingMember (address _memberAddress) {\n        require (membershipLocation.isVotingMember(_memberAddress));\n        _;\n    }\n    \n    //check if is proposing member\n    modifier isProposingMember (address _memberAddress) {\n        require (membershipLocation.isMember(_memberAddress));\n        _;\n    }\n    \n    //maker sure voter has not voted\n    modifier hasNotVoted (uint _proposalId, address _hasVotedAddress) {\n        require (Voted[_hasVotedAddress][_proposalId] == false);\n        _;\n    }\n    \n    //make sure the following action must be done within the expiry period\n    modifier proposalNotExpired (uint _expireProposalId) {\n        require (now <= ProposalById[_expireProposalId].timeEnd);\n        _;\n    }\n    \n    /*functions*/\n    \n    /*\n    main function 1: propose\n    \n    example input: content of proposal (i.e. 'hello world!')\n    expected output: \n        a new proposal with the following properties\n            proposalId: generated by smart contract, start from 0 to n\n            proposer: the address which calls this propose function\n            proposalContent: 68656c6c6f20776f726c6421 \n                            (the HEX representation of hello world)\n            proposalStatus: 0 (open)\n            uint timeEnd: 3 days from this function call is being mined\n            uint voteCount: 0\n    restrictions: \n        content of proposal is not empty\n        is prosing member\n    */\n    function propose (bytes _content) public isProposingMember(msg.sender) {\n\t    //require content not empty\n        require (_content.length != 0);\n        uint endTime = now + 3 days;\n        //create a proposal with the following content\n        ProposalById[proposalIdCount] = (Proposal\n        (proposalIdCount, msg.sender, _content, \n        status.open, endTime, 0));\n\n        emit Propose(proposalIdCount, msg.sender, _content, endTime);\n\n\n        //increment id for next proposal to use\n        proposalIdCount += 1;\n\n    }\n    \n    /*\n    main function 2: vote\n    \n    example input: id of proposal (i.e. 1)\n    expected output: \n        vote count of proposal of id 1 increases by 1\n        mark down the address which calls this function has already voted\n        update the latest voting time of the voter\n    \n    restrictions: \n        address which calls this function is a voting member\n        address which calls this function has not voted the same proposal before\n        the proposal has not yet expired\n    */    \n    function vote (uint _voteProposalId) public \n    isVotingMember(msg.sender) \n    hasNotVoted(_voteProposalId,msg.sender)\n    proposalNotExpired(_voteProposalId) {\n        ProposalById[_voteProposalId].voteCount ++;\n        //disallow the proposer to vote again\n        Voted[msg.sender][_voteProposalId] = true;\n        //update the voting time of this member\n        CannotTransferUntil[msg.sender]= ProposalById[_voteProposalId].timeEnd;\n        \n        emit Vote(_voteProposalId, msg.sender);\n    }\n\n    /*\n    main function 3: close proposal \n    \n    example input: id of proposal (i.e. 1)\n    expected output: \n        change the proposal status to accepted or denied according to:\n            the vote count, which must exceed 1/2 of total no. of members\n            the time, i.e. closes the proposal only after expiry period\n    \n    restrictions: \n        address which calls this function is a voting member\n        address which calls this function has not voted the same proposal before\n        the proposal has not yet expired\n    */        \n    function closeProposal (uint _closeProposalId) public {\n        require (now > ProposalById[_closeProposalId].timeEnd \n        || ProposalById[_closeProposalId].voteCount > 1 \n        /*voteCount > 1 is just a mock, \n        will be (membershipLocation.numberOfmember()+1)/2*/);\n        \n        /* TODO\n        this function requires the membership contract to contain \n        numberOfmember (or similar) function\n        this function calls the member no. counter in membership contract\n        if (ProposalById[_closeProposalId].voteCount \n        > (membershipLocation.numberOfmember()+1)/2;\n        */\n        \n        //the below is for demonstration and testing\n        if (ProposalById[_closeProposalId].voteCount > 1){\n            ProposalById[_closeProposalId].proposalStatus = status.accepted;\n            emit CloseProposal(_closeProposalId, msg.sender, status.accepted);\n        }\n        else {\n            ProposalById[_closeProposalId].proposalStatus = status.denied;\n            emit CloseProposal(_closeProposalId, msg.sender, status.denied);\n        }\n        \n        \n    }\n    \n    \n    /*view functions (not writing the smart contract)*/\n    \n    //retrieve info of proposal given id\n    function getProposal (uint _getProposalId) public view returns(uint, address, bytes, status, uint, uint) {\n        return (ProposalById[_getProposalId].proposalId, \n        ProposalById[_getProposalId].proposer, \n        ProposalById[_getProposalId].proposalContent,\n        ProposalById[_getProposalId].proposalStatus,\n        ProposalById[_getProposalId].timeEnd, \n        ProposalById[_getProposalId].voteCount);\n        \n    }\n    \n    //retrieve membership contract location which is setup initially\n    function showMembership() public view returns(address) {\n            return membershipLocation;\n        }\n\n\n}\n\n\n\n\n\n\n\n\n\n\n\n\ncontract OaxMembership {\n    uint256 public constant MembershipStake = 10**18;\n/*\n    Token public memberToken;\n    Token public gatewayToken;\n    Token public votingToken;\n\n    constructor(address _memberToken, address _gatewayToken, address _votingToken) public {\n        memberToken = Token(_memberToken);\n        gatewayToken = Token(_gatewayToken);\n        votingToken = Token(_votingToken);\n    }\n*/\n    function isMember(address _guy) public view returns(bool) {\n       // return memberToken.balanceOf(_guy) >= MembershipStake;\n       return true;\n    }\n\n    function isGatewayMember(address _guy) public view returns(bool) {\n       // return gatewayToken.balanceOf(_guy) >= MembershipStake;\n       return true;\n    }\n\n    function isVotingMember(address _guy) public view returns(bool) {\n       // return votingToken.balanceOf(_guy) >= MembershipStake;\n       return true;\n    }\n}\n",
  "sourcePath": "/Users/morganhiew/SolidityProject/voting2/contracts/voting.sol",
  "compiler": {
    "name": "solc",
    "version": "0.4.24+commit.e67f0147.Emscripten.clang"
  },
  "schemaVersion": "2.0.1",
  "updatedAt": "2018-11-05T08:18:56.326Z"
}