{
  "contractName": "voting",
  "abi": [
    {
      "inputs": [
        {
          "name": "_membershipLocation",
          "type": "address"
        }
      ],
      "payable": false,
      "stateMutability": "nonpayable",
      "type": "constructor"
    },
    {
      "constant": false,
      "inputs": [
        {
          "name": "_content",
          "type": "bytes"
        }
      ],
      "name": "propose",
      "outputs": [],
      "payable": false,
      "stateMutability": "nonpayable",
      "type": "function"
    },
    {
      "constant": false,
      "inputs": [
        {
          "name": "_voteProposalId",
          "type": "uint256"
        }
      ],
      "name": "vote",
      "outputs": [],
      "payable": false,
      "stateMutability": "nonpayable",
      "type": "function"
    },
    {
      "constant": false,
      "inputs": [
        {
          "name": "_closeProposalId",
          "type": "uint256"
        }
      ],
      "name": "closeProposal",
      "outputs": [],
      "payable": false,
      "stateMutability": "nonpayable",
      "type": "function"
    },
    {
      "constant": true,
      "inputs": [
        {
          "name": "_getProposalId",
          "type": "uint256"
        }
      ],
      "name": "getProposal",
      "outputs": [
        {
          "name": "",
          "type": "uint256"
        },
        {
          "name": "",
          "type": "address"
        },
        {
          "name": "",
          "type": "bytes"
        },
        {
          "name": "",
          "type": "uint8"
        },
        {
          "name": "",
          "type": "uint256"
        },
        {
          "name": "",
          "type": "uint256"
        }
      ],
      "payable": false,
      "stateMutability": "view",
      "type": "function"
    },
    {
      "constant": true,
      "inputs": [],
      "name": "showMembership",
      "outputs": [
        {
          "name": "",
          "type": "address"
        }
      ],
      "payable": false,
      "stateMutability": "view",
      "type": "function"
    }
  ],
  "bytecode": "0x6080604052600060015534801561001557600080fd5b5060405160208061092983398101806040528101908080519060200190929190505050806000806101000a81548173ffffffffffffffffffffffffffffffffffffffff021916908373ffffffffffffffffffffffffffffffffffffffff160217905550506108a1806100886000396000f30060806040526004361061006d576000357c0100000000000000000000000000000000000000000000000000000000900463ffffffff1680630121b93f146100725780630386a0161461009f578063226c6584146100cc57806337558af514610123578063c7f758a81461018c575b600080fd5b34801561007e57600080fd5b5061009d6004803603810190808035906020019092919050505061028f565b005b3480156100ab57600080fd5b506100ca60048036038101908080359060200190929190505050610418565b005b3480156100d857600080fd5b506100e16104f5565b604051808273ffffffffffffffffffffffffffffffffffffffff1673ffffffffffffffffffffffffffffffffffffffff16815260200191505060405180910390f35b34801561012f57600080fd5b5061018a600480360381019080803590602001908201803590602001908080601f016020809104026020016040519081016040528093929190818152602001838380828437820191505050505050919291929050505061051e565b005b34801561019857600080fd5b506101b76004803603810190808035906020019092919050505061065f565b604051808781526020018673ffffffffffffffffffffffffffffffffffffffff1673ffffffffffffffffffffffffffffffffffffffff1681526020018060200185600281111561020357fe5b60ff168152602001848152602001838152602001828103825286818151815260200191508051906020019080838360005b8381101561024f578082015181840152602081019050610234565b50505050905090810190601f16801561027c5780820380516001836020036101000a031916815260200191505b5097505050505050505060405180910390f35b33813360001515600260008373ffffffffffffffffffffffffffffffffffffffff1673ffffffffffffffffffffffffffffffffffffffff168152602001908152602001600020600084815260200190815260200160002060009054906101000a900460ff16151514151561030257600080fd5b836004600082815260200190815260200160002060040154421115151561032857600080fd5b60046000868152602001908152602001600020600501600081548092919060010191905055506001600260003373ffffffffffffffffffffffffffffffffffffffff1673ffffffffffffffffffffffffffffffffffffffff168152602001908152602001600020600087815260200190815260200160002060006101000a81548160ff0219169083151502179055506004600086815260200190815260200160002060040154600360003373ffffffffffffffffffffffffffffffffffffffff1673ffffffffffffffffffffffffffffffffffffffff168152602001908152602001600020819055505050505050565b6004600082815260200190815260200160002060040154421180610452575060016004600083815260200190815260200160002060050154115b151561045d57600080fd5b6001600460008381526020019081526020016000206005015411156104b95760026004600083815260200190815260200160002060030160006101000a81548160ff021916908360028111156104af57fe5b02179055506104f2565b60016004600083815260200190815260200160002060030160006101000a81548160ff021916908360028111156104ec57fe5b02179055505b50565b60008060009054906101000a900473ffffffffffffffffffffffffffffffffffffffff16905090565b33600082511415151561053057600080fd5b60c06040519081016040528060015481526020013373ffffffffffffffffffffffffffffffffffffffff1681526020018381526020016000600281111561057357fe5b81526020016203f4804201815260200160008152506004600060015481526020019081526020016000206000820151816000015560208201518160010160006101000a81548173ffffffffffffffffffffffffffffffffffffffff021916908373ffffffffffffffffffffffffffffffffffffffff160217905550604082015181600201908051906020019061060a9291906107d0565b5060608201518160030160006101000a81548160ff0219169083600281111561062f57fe5b02179055506080820151816004015560a08201518160050155905050600180600082825401925050819055505050565b6000806060600080600060046000888152602001908152602001600020600001546004600089815260200190815260200160002060010160009054906101000a900473ffffffffffffffffffffffffffffffffffffffff16600460008a8152602001908152602001600020600201600460008b815260200190815260200160002060030160009054906101000a900460ff16600460008c815260200190815260200160002060040154600460008d815260200190815260200160002060050154838054600181600116156101000203166002900480601f0160208091040260200160405190810160405280929190818152602001828054600181600116156101000203166002900480156107b45780601f10610789576101008083540402835291602001916107b4565b820191906000526020600020905b81548152906001019060200180831161079757829003601f168201915b5050505050935095509550955095509550955091939550919395565b828054600181600116156101000203166002900490600052602060002090601f016020900481019282601f1061081157805160ff191683800117855561083f565b8280016001018555821561083f579182015b8281111561083e578251825591602001919060010190610823565b5b50905061084c9190610850565b5090565b61087291905b8082111561086e576000816000905550600101610856565b5090565b905600a165627a7a723058203fd24c3b571bcd5b0ad6aefbe4ce47f3076096894a4ccd5cedf3d7291da553160029",
  "source": "pragma solidity ^0.4.24;\n\ncontract voting{\n    \n    /*misc variables*/\n    address membershipLocation;\n    uint proposalIdCount = 0;\n    \n    \n    /*variables regarding the vote status of an individual voter*/\n    //1. status of 'voted?' given voter address and given proposalId\n    mapping (address => mapping (uint => bool)) Voted;\n    //2. allow membership contract to check this attribute\n    //as member that has a voted proposal in progress cannot transfer membership\n    mapping (address => uint) CannotTransferUntil;\n    \n    /*variables regarding the proposal*/\n    //1. status of the proposal\n    enum status {open, denied, accepted}    \n    //2. link an id to a unique proposal\n    mapping (uint => Proposal) ProposalById;\n    //3. things that each proposal contains\n    struct Proposal {\n        //this id duplicates the mapping\n        uint proposalId;\n        address proposer;\n        bytes proposalContent;\n        status proposalStatus;\n        uint timeEnd;\n        uint voteCount;\n    }\n    \n    /*function run at first setup*/\n    //setup membership address for checking \n    //whether an address is a voting member etc. \n    constructor (address _membershipLocation) public {\n\tmembershipLocation = _membershipLocation;\n    }\n    \n    /*checkers for functions*/\n    //check if is voting member\n    modifier isVotingMember (address _memberAddress) {\n        //TODO\n        //needs the target membership contract to have \n        //an isMember (or similar )function\n        //require (membershipLocation.isMember(_memberAddress));\n        _;\n    }\n    \n    //check if is proposing member\n    modifier isProposingMember (address _memberAddress) {\n        //TODO\n        _;\n    }\n    \n    //maker sure voter has not voted\n    modifier hasNotVoted (uint _proposalId, address _hasVotedAddress) {\n        require (Voted[_hasVotedAddress][_proposalId] == false);\n        _;\n    }\n    \n    //make sure the following action mustbe done within the expiry period\n    modifier proposalNotExpired (uint _expireProposalId) {\n        require (now <= ProposalById[_expireProposalId].timeEnd);\n        _;\n    }\n    \n    /*functions*/\n    \n    /*\n    main function 1: propose\n    \n    example input: content of proposal (i.e. 'hello world!')\n    expected output: \n        a new proposal with the following properties\n            proposalId: generated by smart contract, start from 0 to n\n            proposer: the address which calls this propose function\n            proposalContent: 68656c6c6f20776f726c6421 \n                            (the HEX representation of hello world)\n            proposalStatus: 0 (open)\n            uint timeEnd: 3 days from this function call is being mined\n            uint voteCount: 0\n    restrictions: \n        content of proposal is not empty\n        is prosing member\n    */\n    function propose (bytes _content) public isProposingMember(msg.sender) {\n\t    //require content not empty\n        require (_content.length != 0);\n        //create a proposal with the following content\n        ProposalById[proposalIdCount] = (Proposal\n        (proposalIdCount, msg.sender, _content, \n        status.open, block.timestamp + 3 days, 0));\n        //increment id for next proposal to use\n        proposalIdCount += 1;\n        \n        //consider put the proposer's vote here too\n        //concern is both voting and non-voting members can propose\n        //which the increased complexity may lead to higher gas cost\n        \n    }\n    \n    /*\n    main function 2: vote\n    \n    example input: id of proposal (i.e. 1)\n    expected output: \n        vote count of proposal of id 1 increases by 1\n        mark down the address which calls this function has already voted\n        update the latest voting time of the voter\n    \n    restrictions: \n        address which calls this function is a voting member\n        address which calls this function has not voted the same proposal before\n        the proposal has not yet expired\n    */    \n    function vote (uint _voteProposalId) public \n    isVotingMember(msg.sender) \n    hasNotVoted(_voteProposalId,msg.sender)\n    proposalNotExpired(_voteProposalId) {\n        ProposalById[_voteProposalId].voteCount ++;\n        //disallow the proposer to vote again\n        Voted[msg.sender][_voteProposalId] = true;\n        //update the voting time of this member\n        CannotTransferUntil[msg.sender]= ProposalById[_voteProposalId].timeEnd;\n        \n    }\n\n    /*\n    main function 3: close proposal \n    \n    example input: id of proposal (i.e. 1)\n    expected output: \n        change the proposal status to accepted or denied according to:\n            the vote count, which must exceed 1/2 of total no. of members\n            the time, i.e. closes the proposal only after expiry period\n    \n    restrictions: \n        address which calls this function is a voting member\n        address which calls this function has not voted the same proposal before\n        the proposal has not yet expired\n    */        \n    function closeProposal (uint _closeProposalId) public {\n        require (now > ProposalById[_closeProposalId].timeEnd \n        || ProposalById[_closeProposalId].voteCount > 1 \n        /*voteCount > 1 is just a mock, \n        will be (membershipLocation.numberOfmember()+1)/2*/);\n        \n        /* TODO\n        this function requires the membership contract to contain \n        numberOfmember (or similar) function\n        this function calls the member no. counter in membership contract\n        if (ProposalById[_closeProposalId].voteCount \n        > (membershipLocation.numberOfmember()+1)/2;\n        */\n        \n        //the below is for demonstration and testing\n        if (ProposalById[_closeProposalId].voteCount > 1){\n            ProposalById[_closeProposalId].proposalStatus = status.accepted;\n        }\n        else {\n        ProposalById[_closeProposalId].proposalStatus = status.denied;\n        }\n        \n        \n    }\n    \n    \n    /*view functions (not writing the smart contract)*/\n    \n    //retrieve info of proposal given id\n    function getProposal (uint _getProposalId) public view returns(uint, address, bytes, status, uint, uint) {\n        return (ProposalById[_getProposalId].proposalId, \n        ProposalById[_getProposalId].proposer, \n        ProposalById[_getProposalId].proposalContent,\n        ProposalById[_getProposalId].proposalStatus,\n        ProposalById[_getProposalId].timeEnd, \n        ProposalById[_getProposalId].voteCount);\n        \n    }\n    \n    //retrieve membership contract location which is setup initially\n    function showMembership() public view returns(address) {\n            return membershipLocation;\n        }\n\n\n}\n\n\n//questions1: success proposal means >50% of which date?",
  "sourcePath": "/Users/morganhiew/SolidityProject/voting2/contracts/voting.sol",
  "compiler": {
    "name": "solc",
    "version": "0.4.24+commit.e67f0147.Emscripten.clang"
  },
  "schemaVersion": "2.0.1",
  "updatedAt": "2018-10-08T09:40:23.231Z"
}