{
  "contractName": "voting",
  "abi": [
    {
      "inputs": [
        {
          "name": "_membershipLocation",
          "type": "address"
        }
      ],
      "payable": false,
      "stateMutability": "nonpayable",
      "type": "constructor"
    },
    {
      "constant": false,
      "inputs": [
        {
          "name": "_content",
          "type": "bytes"
        }
      ],
      "name": "propose",
      "outputs": [],
      "payable": false,
      "stateMutability": "nonpayable",
      "type": "function"
    },
    {
      "constant": false,
      "inputs": [
        {
          "name": "_voteProposalId",
          "type": "uint256"
        }
      ],
      "name": "vote",
      "outputs": [],
      "payable": false,
      "stateMutability": "nonpayable",
      "type": "function"
    },
    {
      "constant": false,
      "inputs": [
        {
          "name": "_closeProposalId",
          "type": "uint256"
        }
      ],
      "name": "closeProposal",
      "outputs": [],
      "payable": false,
      "stateMutability": "nonpayable",
      "type": "function"
    },
    {
      "constant": true,
      "inputs": [
        {
          "name": "_getProposalId",
          "type": "uint256"
        }
      ],
      "name": "getProposal",
      "outputs": [
        {
          "name": "",
          "type": "uint256"
        },
        {
          "name": "",
          "type": "address"
        },
        {
          "name": "",
          "type": "bytes"
        },
        {
          "name": "",
          "type": "uint8"
        },
        {
          "name": "",
          "type": "uint256"
        },
        {
          "name": "",
          "type": "uint256"
        }
      ],
      "payable": false,
      "stateMutability": "view",
      "type": "function"
    }
  ],
  "bytecode": "0x6080604052600060015534801561001557600080fd5b5060405160208061085483398101806040528101908080519060200190929190505050806000806101000a81548173ffffffffffffffffffffffffffffffffffffffff021916908373ffffffffffffffffffffffffffffffffffffffff160217905550506107cc806100886000396000f300608060405260043610610062576000357c0100000000000000000000000000000000000000000000000000000000900463ffffffff1680630121b93f146100675780630386a0161461009457806337558af5146100c1578063c7f758a81461012a575b600080fd5b34801561007357600080fd5b506100926004803603810190808035906020019092919050505061022d565b005b3480156100a057600080fd5b506100bf600480360381019080803590602001909291905050506103a0565b005b3480156100cd57600080fd5b50610128600480360381019080803590602001908201803590602001908080601f016020809104026020016040519081016040528093929190818152602001838380828437820191505050505050919291929050505061045c565b005b34801561013657600080fd5b506101556004803603810190808035906020019092919050505061058a565b604051808781526020018673ffffffffffffffffffffffffffffffffffffffff1673ffffffffffffffffffffffffffffffffffffffff168152602001806020018560028111156101a157fe5b60ff168152602001848152602001838152602001828103825286818151815260200191508051906020019080838360005b838110156101ed5780820151818401526020810190506101d2565b50505050905090810190601f16801561021a5780820380516001836020036101000a031916815260200191505b5097505050505050505060405180910390f35b33813360001515600260008373ffffffffffffffffffffffffffffffffffffffff1673ffffffffffffffffffffffffffffffffffffffff168152602001908152602001600020600084815260200190815260200160002060009054906101000a900460ff1615151415156102a057600080fd5b83600460008281526020019081526020016000206004015442111515156102c657600080fd5b60046000868152602001908152602001600020600501600081548092919060010191905055506001600260003373ffffffffffffffffffffffffffffffffffffffff1673ffffffffffffffffffffffffffffffffffffffff168152602001908152602001600020600087815260200190815260200160002060006101000a81548160ff02191690831515021790555042600360003373ffffffffffffffffffffffffffffffffffffffff1673ffffffffffffffffffffffffffffffffffffffff168152602001908152602001600020819055505050505050565b6004600082815260200190815260200160002060040154421115156103c457600080fd5b6001600460008381526020019081526020016000206005015411156104205760026004600083815260200190815260200160002060030160006101000a81548160ff0219169083600281111561041657fe5b0217905550610459565b60016004600083815260200190815260200160002060030160006101000a81548160ff0219169083600281111561045357fe5b02179055505b50565b60c06040519081016040528060015481526020013373ffffffffffffffffffffffffffffffffffffffff1681526020018281526020016000600281111561049f57fe5b81526020016203f4804201815260200160008152506004600060015481526020019081526020016000206000820151816000015560208201518160010160006101000a81548173ffffffffffffffffffffffffffffffffffffffff021916908373ffffffffffffffffffffffffffffffffffffffff16021790555060408201518160020190805190602001906105369291906106fb565b5060608201518160030160006101000a81548160ff0219169083600281111561055b57fe5b02179055506080820151816004015560a082015181600501559050506001806000828254019250508190555050565b6000806060600080600060046000888152602001908152602001600020600001546004600089815260200190815260200160002060010160009054906101000a900473ffffffffffffffffffffffffffffffffffffffff16600460008a8152602001908152602001600020600201600460008b815260200190815260200160002060030160009054906101000a900460ff16600460008c815260200190815260200160002060040154600460008d815260200190815260200160002060050154838054600181600116156101000203166002900480601f0160208091040260200160405190810160405280929190818152602001828054600181600116156101000203166002900480156106df5780601f106106b4576101008083540402835291602001916106df565b820191906000526020600020905b8154815290600101906020018083116106c257829003601f168201915b5050505050935095509550955095509550955091939550919395565b828054600181600116156101000203166002900490600052602060002090601f016020900481019282601f1061073c57805160ff191683800117855561076a565b8280016001018555821561076a579182015b8281111561076957825182559160200191906001019061074e565b5b509050610777919061077b565b5090565b61079d91905b80821115610799576000816000905550600101610781565b5090565b905600a165627a7a7230582049f1442761b28a5957cbdba3795ef764c580256d140e10a10d06935b004149b90029",
  "source": "pragma solidity ^0.4.24;\n\ncontract voting{\n    \n    /*misc variables*/\n    address membershipLocation;\n    uint proposalIdCount = 0;\n    \n    \n    /*variables regarding the vote status of an individual voter*/\n    //1. status of 'voted?' given voter address and given proposalId\n    mapping (address => mapping (uint => bool)) Voted;\n    //2. allow membership contract to check this attribute\n    //as member that has a voted proposal in progress cannot transfer membership\n    mapping (address => uint) LastVoted;\n    \n    /*variables regarding the proposal*/\n    //1. status of the proposal\n    enum status {open, closed, accepted}    \n    //2. link an id to a unique proposal\n    mapping (uint => Proposal) ProposalById;\n    //3. things that each proposal contains\n    struct Proposal {\n        //this id duplicates the mapping\n        uint proposalId;\n        address proposer;\n        bytes proposalContent;\n        status proposalStatus;\n        uint timeEnd;\n        uint voteCount;\n    }\n    \n    /*function run at first setup*/\n    //setup membership address for checking \n    //whether an address is a voting member etc. \n    constructor (address _membershipLocation) public {\n        membershipLocation = _membershipLocation;\n    }\n    \n    /*modifiers*/\n    modifier isVotingMember (address _memberAddress) {\n        //needs the target membership contract to have \n        //an isMember (or similar )function\n        //require (membershipLocation.isMember(_memberAddress));\n        _;\n    }\n    \n    modifier hasNotVoted (uint _proposalId, address _hasVotedAddress) {\n        require (Voted[_hasVotedAddress][_proposalId] == false);\n        _;\n    }\n    \n    modifier proposalNotExpired (uint _expireProposalId) {\n        require (now <= ProposalById[_expireProposalId].timeEnd);\n        _;\n    }\n    \n    /*functions*/\n    function propose (bytes _content) public {\n        \n        ProposalById[proposalIdCount] = (Proposal\n        (proposalIdCount, msg.sender, _content, \n        status.open, block.timestamp + 3 days, 0));\n        //increment id for next proposal to use\n        proposalIdCount += 1;\n        \n        //consider put the proposer's vote here too\n        //concern is both voting and non-voting members can propose\n        //which the increased complexity may lead to higher gas cost\n        \n    }\n    \n    \n    function vote (uint _voteProposalId) public \n    isVotingMember(msg.sender) \n    hasNotVoted(_voteProposalId,msg.sender)\n    proposalNotExpired(_voteProposalId) {\n        ProposalById[_voteProposalId].voteCount ++;\n        //disallow the proposer to vote again\n        Voted[msg.sender][_voteProposalId] = true;\n        //update the voting time of this member\n        LastVoted[msg.sender]= block.timestamp;\n        \n    }\n    \n    function closeProposal (uint _closeProposalId) public {\n        require (now > ProposalById[_closeProposalId].timeEnd);\n        \n        /*this function requires the membership contract to contain \n        numberOfmember (or similar) function\n        this function calls the member no. counter in membership contract\n        if (ProposalById[_closeProposalId].voteCount \n        > membershipLocation.numberOfmember());*/\n        \n        //the below is for demonstration and testing\n        if (ProposalById[_closeProposalId].voteCount > 1){\n            ProposalById[_closeProposalId].proposalStatus = status.accepted;\n        }\n        else {\n        ProposalById[_closeProposalId].proposalStatus = status.closed;\n        }\n        \n        \n    }\n    \n    \n    /*view functions (not writing the smart contract)*/\n    //retrieve info of proposal given id\n    function getProposal (uint _getProposalId) public view returns(uint, address, bytes, status, uint, uint) {\n        return (ProposalById[_getProposalId].proposalId, \n        ProposalById[_getProposalId].proposer, \n        ProposalById[_getProposalId].proposalContent,\n        ProposalById[_getProposalId].proposalStatus,\n        ProposalById[_getProposalId].timeEnd, \n        ProposalById[_getProposalId].voteCount);\n        \n    }\n    \n}\n\n\n//questions1: success proposal means >50% of which date?",
  "sourcePath": "/Users/morganhiew/SolidityProject/1/contracts/voting.sol",
  "compiler": {
    "name": "solc",
    "version": "0.4.24+commit.e67f0147.Emscripten.clang"
  },
  "schemaVersion": "2.0.1",
  "updatedAt": "2018-10-04T07:08:56.033Z"
}